{
    "_format": "hh-sol-artifact-1",
    "contractName": "WavePortal",
    "sourceName": "contracts/WavePortal.sol",
    "abi": [
        {
            "inputs": [],
            "stateMutability": "nonpayable",
            "type": "constructor"
        },
        {
            "inputs": [],
            "name": "getTotalWaves",
            "outputs": [
                {
                    "internalType": "uint256",
                    "name": "",
                    "type": "uint256"
                }
            ],
            "stateMutability": "view",
            "type": "function"
        },
        {
            "inputs": [],
            "name": "wave",
            "outputs": [],
            "stateMutability": "nonpayable",
            "type": "function"
        },
        {
            "inputs": [
                {
                    "internalType": "address",
                    "name": "",
                    "type": "address"
                }
            ],
            "name": "waveChart",
            "outputs": [
                {
                    "internalType": "uint104",
                    "name": "",
                    "type": "uint104"
                }
            ],
            "stateMutability": "view",
            "type": "function"
        }
    ],
    "bytecode": "0x608060405234801561001057600080fd5b506100596040518060400160405280600d81526020017f53616c6f6d2c20576f726c64210000000000000000000000000000000000000081525061005e60201b6102f31760201c565b6101d8565b6100fa8160405160240161007291906101b6565b6040516020818303038152906040527f41304fac000000000000000000000000000000000000000000000000000000007bffffffffffffffffffffffffffffffffffffffffffffffffffffffff19166020820180517bffffffffffffffffffffffffffffffffffffffffffffffffffffffff83818316178352505050506100fd60201b60201c565b50565b60008151905060006a636f6e736f6c652e6c6f679050602083016000808483855afa5050505050565b600081519050919050565b600082825260208201905092915050565b60005b83811015610160578082015181840152602081019050610145565b60008484015250505050565b6000601f19601f8301169050919050565b600061018882610126565b6101928185610131565b93506101a2818560208601610142565b6101ab8161016c565b840191505092915050565b600060208201905081810360008301526101d0818461017d565b905092915050565b6108cc806101e76000396000f3fe608060405234801561001057600080fd5b50600436106100415760003560e01c80633eac46c3146100465780636fe15b44146100765780639a2cdc0814610080575b600080fd5b610060600480360381019061005b91906105ef565b61009e565b60405161006d9190610644565b60405180910390f35b61007e6100ca565b005b6100886102a8565b6040516100959190610678565b60405180910390f35b60016020528060005260406000206000915054906101000a90046cffffffffffffffffffffffffff1681565b60016000808282546100dc91906106c2565b925050819055506000600160003373ffffffffffffffffffffffffffffffffffffffff1673ffffffffffffffffffffffffffffffffffffffff16815260200190815260200160002060009054906101000a90046cffffffffffffffffffffffffff16905060018161014d91906106f6565b905080600160003373ffffffffffffffffffffffffffffffffffffffff1673ffffffffffffffffffffffffffffffffffffffff16815260200190815260200160002060006101000a8154816cffffffffffffffffffffffffff02191690836cffffffffffffffffffffffffff1602179055506101fe6040518060400160405280600981526020017f25732077617665642100000000000000000000000000000000000000000000008152503361038c565b6102a56040518060400160405280601a81526020017f257320776176656420696e20746f74616c2025642074696d657300000000000081525033600160003373ffffffffffffffffffffffffffffffffffffffff1673ffffffffffffffffffffffffffffffffffffffff16815260200190815260200160002060009054906101000a90046cffffffffffffffffffffffffff166cffffffffffffffffffffffffff16610428565b50565b60006102eb6040518060400160405280601981526020017f5765206861766520256420776176657320696e20746f74616c000000000000008152506000546104c7565b600054905090565b6103898160405160240161030791906107c7565b6040516020818303038152906040527f41304fac000000000000000000000000000000000000000000000000000000007bffffffffffffffffffffffffffffffffffffffffffffffffffffffff19166020820180517bffffffffffffffffffffffffffffffffffffffffffffffffffffffff8381831617835250505050610563565b50565b61042482826040516024016103a29291906107f8565b6040516020818303038152906040527f319af333000000000000000000000000000000000000000000000000000000007bffffffffffffffffffffffffffffffffffffffffffffffffffffffff19166020820180517bffffffffffffffffffffffffffffffffffffffffffffffffffffffff8381831617835250505050610563565b5050565b6104c283838360405160240161044093929190610828565b6040516020818303038152906040527f0d26b925000000000000000000000000000000000000000000000000000000007bffffffffffffffffffffffffffffffffffffffffffffffffffffffff19166020820180517bffffffffffffffffffffffffffffffffffffffffffffffffffffffff8381831617835250505050610563565b505050565b61055f82826040516024016104dd929190610866565b6040516020818303038152906040527fb60e72cc000000000000000000000000000000000000000000000000000000007bffffffffffffffffffffffffffffffffffffffffffffffffffffffff19166020820180517bffffffffffffffffffffffffffffffffffffffffffffffffffffffff8381831617835250505050610563565b5050565b60008151905060006a636f6e736f6c652e6c6f679050602083016000808483855afa5050505050565b600080fd5b600073ffffffffffffffffffffffffffffffffffffffff82169050919050565b60006105bc82610591565b9050919050565b6105cc816105b1565b81146105d757600080fd5b50565b6000813590506105e9816105c3565b92915050565b6000602082840312156106055761060461058c565b5b6000610613848285016105da565b91505092915050565b60006cffffffffffffffffffffffffff82169050919050565b61063e8161061c565b82525050565b60006020820190506106596000830184610635565b92915050565b6000819050919050565b6106728161065f565b82525050565b600060208201905061068d6000830184610669565b92915050565b7f4e487b7100000000000000000000000000000000000000000000000000000000600052601160045260246000fd5b60006106cd8261065f565b91506106d88361065f565b92508282019050808211156106f0576106ef610693565b5b92915050565b60006107018261061c565b915061070c8361061c565b925082820190506cffffffffffffffffffffffffff81111561073157610730610693565b5b92915050565b600081519050919050565b600082825260208201905092915050565b60005b83811015610771578082015181840152602081019050610756565b60008484015250505050565b6000601f19601f8301169050919050565b600061079982610737565b6107a38185610742565b93506107b3818560208601610753565b6107bc8161077d565b840191505092915050565b600060208201905081810360008301526107e1818461078e565b905092915050565b6107f2816105b1565b82525050565b60006040820190508181036000830152610812818561078e565b905061082160208301846107e9565b9392505050565b60006060820190508181036000830152610842818661078e565b905061085160208301856107e9565b61085e6040830184610669565b949350505050565b60006040820190508181036000830152610880818561078e565b905061088f6020830184610669565b939250505056fea26469706673582212209739183114f6436420c984ecccccdb63764ea21b11a70c790642d4922233a38a64736f6c63430008110033",
    "linkReferences": {},
    "deployedLinkReferences": {}
}